{
  "contractName": "CompanyAccessControl",
  "abi": [
    {
      "constant": true,
      "inputs": [],
      "name": "cfoAddress",
      "outputs": [
        {
          "name": "",
          "type": "address"
        }
      ],
      "payable": false,
      "stateMutability": "view",
      "type": "function"
    },
    {
      "constant": true,
      "inputs": [],
      "name": "ceoAddress",
      "outputs": [
        {
          "name": "",
          "type": "address"
        }
      ],
      "payable": false,
      "stateMutability": "view",
      "type": "function"
    },
    {
      "constant": true,
      "inputs": [],
      "name": "paused",
      "outputs": [
        {
          "name": "",
          "type": "bool"
        }
      ],
      "payable": false,
      "stateMutability": "view",
      "type": "function"
    },
    {
      "constant": true,
      "inputs": [],
      "name": "cooAddress",
      "outputs": [
        {
          "name": "",
          "type": "address"
        }
      ],
      "payable": false,
      "stateMutability": "view",
      "type": "function"
    },
    {
      "constant": true,
      "inputs": [],
      "name": "withdrawalAddress",
      "outputs": [
        {
          "name": "",
          "type": "address"
        }
      ],
      "payable": false,
      "stateMutability": "view",
      "type": "function"
    },
    {
      "anonymous": false,
      "inputs": [
        {
          "indexed": false,
          "name": "newContract",
          "type": "address"
        }
      ],
      "name": "ContractUpgrade",
      "type": "event"
    },
    {
      "anonymous": false,
      "inputs": [],
      "name": "Paused",
      "type": "event"
    },
    {
      "anonymous": false,
      "inputs": [],
      "name": "Unpaused",
      "type": "event"
    },
    {
      "constant": false,
      "inputs": [
        {
          "name": "_newCEO",
          "type": "address"
        }
      ],
      "name": "setCEO",
      "outputs": [],
      "payable": false,
      "stateMutability": "nonpayable",
      "type": "function"
    },
    {
      "constant": false,
      "inputs": [
        {
          "name": "_newCFO",
          "type": "address"
        }
      ],
      "name": "setCFO",
      "outputs": [],
      "payable": false,
      "stateMutability": "nonpayable",
      "type": "function"
    },
    {
      "constant": false,
      "inputs": [
        {
          "name": "_newCOO",
          "type": "address"
        }
      ],
      "name": "setCOO",
      "outputs": [],
      "payable": false,
      "stateMutability": "nonpayable",
      "type": "function"
    },
    {
      "constant": false,
      "inputs": [
        {
          "name": "_newWithdrawalAddress",
          "type": "address"
        }
      ],
      "name": "setWithdrawalAddress",
      "outputs": [],
      "payable": false,
      "stateMutability": "nonpayable",
      "type": "function"
    },
    {
      "constant": false,
      "inputs": [],
      "name": "withdrawBalance",
      "outputs": [],
      "payable": false,
      "stateMutability": "nonpayable",
      "type": "function"
    },
    {
      "constant": false,
      "inputs": [],
      "name": "pause",
      "outputs": [],
      "payable": false,
      "stateMutability": "nonpayable",
      "type": "function"
    },
    {
      "constant": false,
      "inputs": [],
      "name": "unpause",
      "outputs": [],
      "payable": false,
      "stateMutability": "nonpayable",
      "type": "function"
    }
  ],
  "bytecode": "0x60806040526000600360146101000a81548160ff02191690831515021790555034801561002b57600080fd5b50610b9e8061003b6000396000f3006080604052600436106100ba576000357c0100000000000000000000000000000000000000000000000000000000900463ffffffff1680630519ce79146100bf5780630a0f81681461011657806321b8092e1461016d57806327d7874c146101b05780632ba73c15146101f35780633f4ba83a146102365780634e0a33791461024d5780635c975abb146102905780635fd8c710146102bf5780638456cb59146102d6578063b047fb50146102ed578063f2bcd02214610344575b600080fd5b3480156100cb57600080fd5b506100d461039b565b604051808273ffffffffffffffffffffffffffffffffffffffff1673ffffffffffffffffffffffffffffffffffffffff16815260200191505060405180910390f35b34801561012257600080fd5b5061012b6103c1565b604051808273ffffffffffffffffffffffffffffffffffffffff1673ffffffffffffffffffffffffffffffffffffffff16815260200191505060405180910390f35b34801561017957600080fd5b506101ae600480360381019080803573ffffffffffffffffffffffffffffffffffffffff1690602001909291905050506103e6565b005b3480156101bc57600080fd5b506101f1600480360381019080803573ffffffffffffffffffffffffffffffffffffffff1690602001909291905050506104c1565b005b3480156101ff57600080fd5b50610234600480360381019080803573ffffffffffffffffffffffffffffffffffffffff16906020019092919050505061059b565b005b34801561024257600080fd5b5061024b610676565b005b34801561025957600080fd5b5061028e600480360381019080803573ffffffffffffffffffffffffffffffffffffffff169060200190929190505050610735565b005b34801561029c57600080fd5b506102a5610810565b604051808215151515815260200191505060405180910390f35b3480156102cb57600080fd5b506102d4610823565b005b3480156102e257600080fd5b506102eb6109b6565b005b3480156102f957600080fd5b50610302610b26565b604051808273ffffffffffffffffffffffffffffffffffffffff1673ffffffffffffffffffffffffffffffffffffffff16815260200191505060405180910390f35b34801561035057600080fd5b50610359610b4c565b604051808273ffffffffffffffffffffffffffffffffffffffff1673ffffffffffffffffffffffffffffffffffffffff16815260200191505060405180910390f35b600160009054906101000a900473ffffffffffffffffffffffffffffffffffffffff1681565b6000809054906101000a900473ffffffffffffffffffffffffffffffffffffffff1681565b6000809054906101000a900473ffffffffffffffffffffffffffffffffffffffff1673ffffffffffffffffffffffffffffffffffffffff163373ffffffffffffffffffffffffffffffffffffffff1614151561044157600080fd5b600073ffffffffffffffffffffffffffffffffffffffff168173ffffffffffffffffffffffffffffffffffffffff161415151561047d57600080fd5b80600360006101000a81548173ffffffffffffffffffffffffffffffffffffffff021916908373ffffffffffffffffffffffffffffffffffffffff16021790555050565b6000809054906101000a900473ffffffffffffffffffffffffffffffffffffffff1673ffffffffffffffffffffffffffffffffffffffff163373ffffffffffffffffffffffffffffffffffffffff1614151561051c57600080fd5b600073ffffffffffffffffffffffffffffffffffffffff168173ffffffffffffffffffffffffffffffffffffffff161415151561055857600080fd5b806000806101000a81548173ffffffffffffffffffffffffffffffffffffffff021916908373ffffffffffffffffffffffffffffffffffffffff16021790555050565b6000809054906101000a900473ffffffffffffffffffffffffffffffffffffffff1673ffffffffffffffffffffffffffffffffffffffff163373ffffffffffffffffffffffffffffffffffffffff161415156105f657600080fd5b600073ffffffffffffffffffffffffffffffffffffffff168173ffffffffffffffffffffffffffffffffffffffff161415151561063257600080fd5b80600260006101000a81548173ffffffffffffffffffffffffffffffffffffffff021916908373ffffffffffffffffffffffffffffffffffffffff16021790555050565b6000809054906101000a900473ffffffffffffffffffffffffffffffffffffffff1673ffffffffffffffffffffffffffffffffffffffff163373ffffffffffffffffffffffffffffffffffffffff161415156106d157600080fd5b600360149054906101000a900460ff1615156106ec57600080fd5b6000600360146101000a81548160ff0219169083151502179055507fa45f47fdea8a1efdd9029a5691c7f759c32b7c698632b563573e155625d1693360405160405180910390a1565b6000809054906101000a900473ffffffffffffffffffffffffffffffffffffffff1673ffffffffffffffffffffffffffffffffffffffff163373ffffffffffffffffffffffffffffffffffffffff1614151561079057600080fd5b600073ffffffffffffffffffffffffffffffffffffffff168173ffffffffffffffffffffffffffffffffffffffff16141515156107cc57600080fd5b80600160006101000a81548173ffffffffffffffffffffffffffffffffffffffff021916908373ffffffffffffffffffffffffffffffffffffffff16021790555050565b600360149054906101000a900460ff1681565b600160009054906101000a900473ffffffffffffffffffffffffffffffffffffffff1673ffffffffffffffffffffffffffffffffffffffff163373ffffffffffffffffffffffffffffffffffffffff1614806108cb57506000809054906101000a900473ffffffffffffffffffffffffffffffffffffffff1673ffffffffffffffffffffffffffffffffffffffff163373ffffffffffffffffffffffffffffffffffffffff16145b15156108d657600080fd5b600073ffffffffffffffffffffffffffffffffffffffff16600360009054906101000a900473ffffffffffffffffffffffffffffffffffffffff1673ffffffffffffffffffffffffffffffffffffffff161415151561093457600080fd5b600360009054906101000a900473ffffffffffffffffffffffffffffffffffffffff1673ffffffffffffffffffffffffffffffffffffffff166108fc3073ffffffffffffffffffffffffffffffffffffffff16319081150290604051600060405180830381858888f193505050501580156109b3573d6000803e3d6000fd5b50565b600260009054906101000a900473ffffffffffffffffffffffffffffffffffffffff1673ffffffffffffffffffffffffffffffffffffffff163373ffffffffffffffffffffffffffffffffffffffff161480610a5e57506000809054906101000a900473ffffffffffffffffffffffffffffffffffffffff1673ffffffffffffffffffffffffffffffffffffffff163373ffffffffffffffffffffffffffffffffffffffff16145b80610ab65750600160009054906101000a900473ffffffffffffffffffffffffffffffffffffffff1673ffffffffffffffffffffffffffffffffffffffff163373ffffffffffffffffffffffffffffffffffffffff16145b1515610ac157600080fd5b600360149054906101000a900460ff16151515610add57600080fd5b6001600360146101000a81548160ff0219169083151502179055507f9e87fac88ff661f02d44f95383c817fece4bce600a3dab7a54406878b965e75260405160405180910390a1565b600260009054906101000a900473ffffffffffffffffffffffffffffffffffffffff1681565b600360009054906101000a900473ffffffffffffffffffffffffffffffffffffffff16815600a165627a7a723058209572687d80c54a2b28fbeaf422b73b09f455f19e88567f1811fdad0898a716e40029",
  "source": "pragma solidity >=0.4.22 <0.6.0;\n\n/**\n * @title CompanyAccessControl\n * @notice This contract defines organizational roles and permissions.\n */\ncontract CompanyAccessControl {\n  /**\n   * @notice ContractUpgrade is the event that will be emitted if we set a new contract address\n   */\n  event ContractUpgrade(address newContract);\n  event Paused();\n  event Unpaused();\n\n  /**\n   * @notice CEO's address FOOBAR\n   */\n  address public ceoAddress;\n\n  /**\n   * @notice CFO's address\n   */\n  address public cfoAddress;\n\n  /**\n   * @notice COO's address\n   */\n  address public cooAddress;\n\n  /**\n   * @notice withdrawal address\n   */\n  address public withdrawalAddress;\n\n  bool public paused = false;\n\n  /**\n   * @dev Modifier to make a function only callable by the CEO\n   */\n  modifier onlyCEO() {\n    require(msg.sender == ceoAddress);\n    _;\n  }\n\n  /**\n   * @dev Modifier to make a function only callable by the CFO\n   */\n  modifier onlyCFO() {\n    require(msg.sender == cfoAddress);\n    _;\n  }\n\n  /**\n   * @dev Modifier to make a function only callable by the COO\n   */\n  modifier onlyCOO() {\n    require(msg.sender == cooAddress);\n    _;\n  }\n\n  /**\n   * @dev Modifier to make a function only callable by C-level execs\n   */\n  modifier onlyCLevel() {\n    require(\n      msg.sender == cooAddress ||\n      msg.sender == ceoAddress ||\n      msg.sender == cfoAddress\n    );\n    _;\n  }\n\n  /**\n   * @dev Modifier to make a function only callable by CEO or CFO\n   */\n  modifier onlyCEOOrCFO() {\n    require(\n      msg.sender == cfoAddress ||\n      msg.sender == ceoAddress\n    );\n    _;\n  }\n\n  /**\n   * @dev Modifier to make a function only callable by CEO or COO\n   */\n  modifier onlyCEOOrCOO() {\n    require(\n      msg.sender == cooAddress ||\n      msg.sender == ceoAddress\n    );\n    _;\n  }\n\n  /**\n   * @notice Sets a new CEO\n   * @param _newCEO - the address of the new CEO\n   */\n  function setCEO(address _newCEO) external onlyCEO {\n    require(_newCEO != address(0));\n    ceoAddress = _newCEO;\n  }\n\n  /**\n   * @notice Sets a new CFO\n   * @param _newCFO - the address of the new CFO\n   */\n  function setCFO(address _newCFO) external onlyCEO {\n    require(_newCFO != address(0));\n    cfoAddress = _newCFO;\n  }\n\n  /**\n   * @notice Sets a new COO\n   * @param _newCOO - the address of the new COO\n   */\n  function setCOO(address _newCOO) external onlyCEO {\n    require(_newCOO != address(0));\n    cooAddress = _newCOO;\n  }\n\n  /**\n   * @notice Sets a new withdrawalAddress\n   * @param _newWithdrawalAddress - the address where we'll send the funds\n   */\n  function setWithdrawalAddress(address _newWithdrawalAddress) external onlyCEO {\n    require(_newWithdrawalAddress != address(0));\n    withdrawalAddress = _newWithdrawalAddress;\n  }\n\n  /**\n   * @notice Withdraw the balance to the withdrawalAddress\n   * @dev We set a withdrawal address seperate from the CFO because this allows us to withdraw to a cold wallet.\n   */\n  function withdrawBalance() external onlyCEOOrCFO {\n    require(withdrawalAddress != address(0));\n    withdrawalAddress.transfer(this.balance);\n  }\n\n  /** Pausable functionality adapted from OpenZeppelin **/\n\n  /**\n   * @dev Modifier to make a function callable only when the contract is not paused.\n   */\n  modifier whenNotPaused() {\n    require(!paused);\n    _;\n  }\n\n  /**\n   * @dev Modifier to make a function callable only when the contract is paused.\n   */\n  modifier whenPaused() {\n    require(paused);\n    _;\n  }\n\n  /**\n   * @notice called by any C-level to pause, triggers stopped state\n   */\n  function pause() public onlyCLevel whenNotPaused {\n    paused = true;\n    Paused();\n  }\n\n  /**\n   * @notice called by the CEO to unpause, returns to normal state\n   */\n  function unpause() public onlyCEO whenPaused {\n    paused = false;\n    Unpaused();\n  }\n}",
  "sourcePath": "/Users/alessandrochelli/softwareProjects/Trusty/trusty-web3-contracts/company_contract/contracts/CompanyAccessControl.sol",
  "compiler": {
    "name": "solc",
    "version": "0.4.24+commit.e67f0147.Emscripten.clang"
  },
  "schemaVersion": "2.0.1",
  "updatedAt": "2019-09-03T17:59:51.172Z"
}