{
  "contractName": "CompanyBase",
  "abi": [
    {
      "inputs": [],
      "payable": false,
      "stateMutability": "nonpayable",
      "type": "constructor"
    },
    {
      "anonymous": false,
      "inputs": [
        {
          "indexed": false,
          "name": "_name",
          "type": "string"
        },
        {
          "indexed": false,
          "name": "_companyId",
          "type": "string"
        },
        {
          "indexed": false,
          "name": "trustyId",
          "type": "uint256"
        },
        {
          "indexed": true,
          "name": "companyTrustyIdentifier",
          "type": "address"
        }
      ],
      "name": "CompanyCreated",
      "type": "event"
    },
    {
      "constant": false,
      "inputs": [
        {
          "name": "_id",
          "type": "string"
        },
        {
          "name": "_name",
          "type": "string"
        },
        {
          "name": "_companyTrustyIdentifier",
          "type": "address"
        }
      ],
      "name": "_createCompany",
      "outputs": [
        {
          "name": "",
          "type": "uint256"
        }
      ],
      "payable": false,
      "stateMutability": "nonpayable",
      "type": "function"
    },
    {
      "constant": true,
      "inputs": [
        {
          "name": "id",
          "type": "uint256"
        }
      ],
      "name": "companyInfo",
      "outputs": [
        {
          "name": "",
          "type": "string"
        },
        {
          "name": "",
          "type": "string"
        },
        {
          "name": "",
          "type": "address"
        }
      ],
      "payable": false,
      "stateMutability": "view",
      "type": "function"
    }
  ],
  "bytecode": "0x608060405234801561001057600080fd5b50610019610177565b60006060604051908101604052806040805190810160405280600181526020017f300000000000000000000000000000000000000000000000000000000000000081525081526020016040805190810160405280600f81526020017f47454e4553495320434f4d50414e5900000000000000000000000000000000008152508152602001600073ffffffffffffffffffffffffffffffffffffffff16815250915060016000839080600181540180825580915050906001820390600052602060002090600302016000909192909190915060008201518160000190805190602001906101069291906101af565b5060208201518160010190805190602001906101239291906101af565b5060408201518160020160006101000a81548173ffffffffffffffffffffffffffffffffffffffff021916908373ffffffffffffffffffffffffffffffffffffffff16021790555050500390505050610254565b6060604051908101604052806060815260200160608152602001600073ffffffffffffffffffffffffffffffffffffffff1681525090565b828054600181600116156101000203166002900490600052602060002090601f016020900481019282601f106101f057805160ff191683800117855561021e565b8280016001018555821561021e579182015b8281111561021d578251825591602001919060010190610202565b5b50905061022b919061022f565b5090565b61025191905b8082111561024d576000816000905550600101610235565b5090565b90565b610779806102636000396000f30060806040526004361061004c576000357c0100000000000000000000000000000000000000000000000000000000900463ffffffff1680635b54e2ed14610051578063a950628c14610134575b600080fd5b34801561005d57600080fd5b5061011e600480360381019080803590602001908201803590602001908080601f0160208091040260200160405190810160405280939291908181526020018383808284378201915050505050509192919290803590602001908201803590602001908080601f0160208091040260200160405190810160405280939291908181526020018383808284378201915050505050509192919290803573ffffffffffffffffffffffffffffffffffffffff169060200190929190505050610279565b6040518082815260200191505060405180910390f35b34801561014057600080fd5b5061015f600480360381019080803590602001909291905050506104a6565b6040518080602001806020018473ffffffffffffffffffffffffffffffffffffffff1673ffffffffffffffffffffffffffffffffffffffff168152602001838103835286818151815260200191508051906020019080838360005b838110156101d55780820151818401526020810190506101ba565b50505050905090810190601f1680156102025780820380516001836020036101000a031916815260200191505b50838103825285818151815260200191508051906020019080838360005b8381101561023b578082015181840152602081019050610220565b50505050905090810190601f1680156102685780820380516001836020036101000a031916815260200191505b509550505050505060405180910390f35b600080610284610670565b60008054905091506060604051908101604052808781526020018681526020018573ffffffffffffffffffffffffffffffffffffffff16815250905060008190806001815401808255809150509060018203906000526020600020906003020160009091929091909150600082015181600001908051906020019061030a9291906106a8565b5060208201518160010190805190602001906103279291906106a8565b5060408201518160020160006101000a81548173ffffffffffffffffffffffffffffffffffffffff021916908373ffffffffffffffffffffffffffffffffffffffff1602179055505050508373ffffffffffffffffffffffffffffffffffffffff167feab13c85fdc23e80e2cd050cf25fe6843894c52ca7c7dc77b4c44436fe0abe17868885604051808060200180602001848152602001838103835286818151815260200191508051906020019080838360005b838110156103f75780820151818401526020810190506103dc565b50505050905090810190601f1680156104245780820380516001836020036101000a031916815260200191505b50838103825285818151815260200191508051906020019080838360005b8381101561045d578082015181840152602081019050610442565b50505050905090810190601f16801561048a5780820380516001836020036101000a031916815260200191505b509550505050505060405180910390a281925050509392505050565b606080600080848154811015156104b957fe5b90600052602060002090600302016001016000858154811015156104d957fe5b90600052602060002090600302016000016000868154811015156104f957fe5b906000526020600020906003020160020160009054906101000a900473ffffffffffffffffffffffffffffffffffffffff16828054600181600116156101000203166002900480601f0160208091040260200160405190810160405280929190818152602001828054600181600116156101000203166002900480156105c05780601f10610595576101008083540402835291602001916105c0565b820191906000526020600020905b8154815290600101906020018083116105a357829003601f168201915b50505050509250818054600181600116156101000203166002900480601f01602080910402602001604051908101604052809291908181526020018280546001816001161561010002031660029004801561065c5780601f106106315761010080835404028352916020019161065c565b820191906000526020600020905b81548152906001019060200180831161063f57829003601f168201915b505050505091509250925092509193909250565b6060604051908101604052806060815260200160608152602001600073ffffffffffffffffffffffffffffffffffffffff1681525090565b828054600181600116156101000203166002900490600052602060002090601f016020900481019282601f106106e957805160ff1916838001178555610717565b82800160010185558215610717579182015b828111156107165782518255916020019190600101906106fb565b5b5090506107249190610728565b5090565b61074a91905b8082111561074657600081600090555060010161072e565b5090565b905600a165627a7a72305820cf14ea624a323773d8a91a74bea7635d434e09065b7549bb9a431b5096fe760b0029",
  "source": "pragma solidity >=0.4.22 <0.6.0;\n\nimport \"./CompanyAccessControl.sol\";\n\n/*\n* @title CompanyBase\n* @notice This contract defines the Company data structure and how to read from it\n*\n*/\n\ncontract CompanyBase{\n\n  struct Company {\n    string companyId;\n    string name;\n    address companyTrustyIdentifier;\n  }\n\n  /**\n   * @notice All comapny in existence.\n   * @dev The ID of each company is an index in this array.\n   */\n  Company[] companies;\n\n  event CompanyCreated(string _name, string _companyId, uint trustyId, address indexed companyTrustyIdentifier);\n\n  constructor() public {\n    Company memory _company = Company({companyId: \"0\",name:\"GENESIS COMPANY\",companyTrustyIdentifier:0x0000000000000000000000000000000000000000});\n    uint256 newCompanyId = companies.push(_company) - 1;\n  }\n\n\n  //Implementare il blocco se si prova ad aggiungere una company con un GS1 id uguale a quello di una già inserita,\n  //Fare queasta cosa con un mapping\n  function _createCompany(string _id, string _name, address _companyTrustyIdentifier) public returns (uint) {\n    //Si possono inserire delle require per evitare errori\n    uint trustyId = companies.length;\n    Company memory _company = Company({companyId: _id,name:_name, companyTrustyIdentifier:_companyTrustyIdentifier});\n    companies.push(_company);\n    //Inserire un evento ==> Si potrebbe fare una pipeline laterale per gli eventi, un contratto che li gestisce tutti.\n    emit CompanyCreated(_name,_id,trustyId,_companyTrustyIdentifier);\n    return trustyId;\n  }\n\n  function companyInfo(uint id)\n    public view returns (string, string,address)\n  {\n    return (\n      companies[id].name,\n      companies[id].companyId,\n      companies[id].companyTrustyIdentifier\n    );\n  }\n}",
  "sourcePath": "/Users/alessandrochelli/softwareProjects/Trusty/trusty-web3-contracts/company_contract/contracts/CompanyBase.sol",
  "compiler": {
    "name": "solc",
    "version": "0.4.24+commit.e67f0147.Emscripten.clang"
  },
  "schemaVersion": "2.0.1",
  "updatedAt": "2019-09-03T18:00:04.107Z"
}