{
  "contractName": "Product",
  "abi": [
    {
      "anonymous": false,
      "inputs": [
        {
          "indexed": false,
          "name": "_id",
          "type": "uint256"
        },
        {
          "indexed": false,
          "name": "_name",
          "type": "string"
        },
        {
          "indexed": false,
          "name": "productId",
          "type": "string"
        },
        {
          "indexed": true,
          "name": "_companyTrustyIdentifier",
          "type": "address"
        }
      ],
      "name": "ProductCreated",
      "type": "event"
    },
    {
      "constant": false,
      "inputs": [
        {
          "name": "name",
          "type": "string"
        },
        {
          "name": "productId",
          "type": "string"
        },
        {
          "name": "metadataURI",
          "type": "string"
        },
        {
          "name": "hashMetadata",
          "type": "string"
        },
        {
          "name": "companyTrustyIdentifier",
          "type": "address"
        }
      ],
      "name": "createProduct",
      "outputs": [],
      "payable": false,
      "stateMutability": "nonpayable",
      "type": "function"
    },
    {
      "constant": true,
      "inputs": [
        {
          "name": "id",
          "type": "uint256"
        }
      ],
      "name": "getFacilityFromIdentifier",
      "outputs": [
        {
          "name": "",
          "type": "string"
        },
        {
          "name": "",
          "type": "string"
        },
        {
          "name": "",
          "type": "string"
        },
        {
          "name": "",
          "type": "string"
        },
        {
          "name": "",
          "type": "address"
        }
      ],
      "payable": false,
      "stateMutability": "view",
      "type": "function"
    }
  ],
  "bytecode": "0x608060405234801561001057600080fd5b50610b0a806100206000396000f30060806040526004361061004c576000357c0100000000000000000000000000000000000000000000000000000000900463ffffffff168063ef98740814610051578063fca2feb21461026e575b600080fd5b34801561005d57600080fd5b5061007c600480360381019080803590602001909291905050506103c9565b60405180806020018060200180602001806020018673ffffffffffffffffffffffffffffffffffffffff1673ffffffffffffffffffffffffffffffffffffffff16815260200185810385528a818151815260200191508051906020019080838360005b838110156100fa5780820151818401526020810190506100df565b50505050905090810190601f1680156101275780820380516001836020036101000a031916815260200191505b50858103845289818151815260200191508051906020019080838360005b83811015610160578082015181840152602081019050610145565b50505050905090810190601f16801561018d5780820380516001836020036101000a031916815260200191505b50858103835288818151815260200191508051906020019080838360005b838110156101c65780820151818401526020810190506101ab565b50505050905090810190601f1680156101f35780820380516001836020036101000a031916815260200191505b50858103825287818151815260200191508051906020019080838360005b8381101561022c578082015181840152602081019050610211565b50505050905090810190601f1680156102595780820380516001836020036101000a031916815260200191505b50995050505050505050505060405180910390f35b34801561027a57600080fd5b506103c7600480360381019080803590602001908201803590602001908080601f0160208091040260200160405190810160405280939291908181526020018383808284378201915050505050509192919290803590602001908201803590602001908080601f0160208091040260200160405190810160405280939291908181526020018383808284378201915050505050509192919290803590602001908201803590602001908080601f0160208091040260200160405190810160405280939291908181526020018383808284378201915050505050509192919290803590602001908201803590602001908080601f0160208091040260200160405190810160405280939291908181526020018383808284378201915050505050509192919290803573ffffffffffffffffffffffffffffffffffffffff169060200190929190505050610714565b005b606080606080600080868154811015156103df57fe5b90600052602060002090600502016000016000878154811015156103ff57fe5b906000526020600020906005020160010160008881548110151561041f57fe5b906000526020600020906005020160020160008981548110151561043f57fe5b906000526020600020906005020160030160008a81548110151561045f57fe5b906000526020600020906005020160040160009054906101000a900473ffffffffffffffffffffffffffffffffffffffff16848054600181600116156101000203166002900480601f0160208091040260200160405190810160405280929190818152602001828054600181600116156101000203166002900480156105265780601f106104fb57610100808354040283529160200191610526565b820191906000526020600020905b81548152906001019060200180831161050957829003601f168201915b50505050509450838054600181600116156101000203166002900480601f0160208091040260200160405190810160405280929190818152602001828054600181600116156101000203166002900480156105c25780601f10610597576101008083540402835291602001916105c2565b820191906000526020600020905b8154815290600101906020018083116105a557829003601f168201915b50505050509350828054600181600116156101000203166002900480601f01602080910402602001604051908101604052809291908181526020018280546001816001161561010002031660029004801561065e5780601f106106335761010080835404028352916020019161065e565b820191906000526020600020905b81548152906001019060200180831161064157829003601f168201915b50505050509250818054600181600116156101000203166002900480601f0160208091040260200160405190810160405280929190818152602001828054600181600116156101000203166002900480156106fa5780601f106106cf576101008083540402835291602001916106fa565b820191906000526020600020905b8154815290600101906020018083116106dd57829003601f168201915b505050505091509450945094509450945091939590929450565b600061071e6109f3565b600080549050915060a0604051908101604052808881526020018781526020018681526020018581526020018473ffffffffffffffffffffffffffffffffffffffff1681525090506000819080600181540180825580915050906001820390600052602060002090600502016000909192909190915060008201518160000190805190602001906107b0929190610a39565b5060208201518160010190805190602001906107cd929190610a39565b5060408201518160020190805190602001906107ea929190610a39565b506060820151816003019080519060200190610807929190610a39565b5060808201518160040160006101000a81548173ffffffffffffffffffffffffffffffffffffffff021916908373ffffffffffffffffffffffffffffffffffffffff160217905550505050816001876040518082805190602001908083835b60208310151561088b5780518252602082019150602081019050602083039250610866565b6001836020036101000a0380198251168184511680821785525050505050509050019150509081526020016040518091039020819055508273ffffffffffffffffffffffffffffffffffffffff167f5f1912a9c5f8a881e905d410b7f74013932df43b5dec69d074d965f102e19af8838989604051808481526020018060200180602001838103835285818151815260200191508051906020019080838360005b8381101561094757808201518184015260208101905061092c565b50505050905090810190601f1680156109745780820380516001836020036101000a031916815260200191505b50838103825284818151815260200191508051906020019080838360005b838110156109ad578082015181840152602081019050610992565b50505050905090810190601f1680156109da5780820380516001836020036101000a031916815260200191505b509550505050505060405180910390a250505050505050565b60a06040519081016040528060608152602001606081526020016060815260200160608152602001600073ffffffffffffffffffffffffffffffffffffffff1681525090565b828054600181600116156101000203166002900490600052602060002090601f016020900481019282601f10610a7a57805160ff1916838001178555610aa8565b82800160010185558215610aa8579182015b82811115610aa7578251825591602001919060010190610a8c565b5b509050610ab59190610ab9565b5090565b610adb91905b80821115610ad7576000816000905550600101610abf565b5090565b905600a165627a7a72305820c7fe446eb3cd6c509c2b574ab3f404d07d045a5ef54c49426e8ff39319cb0a850029",
  "source": "pragma solidity >=0.4.22 <0.6.0;\n\nimport \"./CompanyAccessControl.sol\";\n\ncontract Product {\n  //address internal _owner;\n\n  struct Product {\n    string name;\n    string productId;\n    string metadataURI;\n    string hashMetadata;\n    address companyTrustyIdentifier;\n  }\n\n  Product[] products;\n\n  mapping(string => uint256) productToId;\n\n  event ProductCreated(uint _id, string _name, string productId, address indexed _companyTrustyIdentifier);\n  //event CreditNoteUpdate(address indexed _owner,  string _identifier, string _newStatus);\n\n  function createProduct(string memory  name, string memory productId, string memory metadataURI, string memory hashMetadata, address companyTrustyIdentifier) public {\n    uint256 newProductId = products.length;\n    Product memory _product = Product({\n      name: name,\n      productId: productId,\n      metadataURI: metadataURI,\n      hashMetadata: hashMetadata,\n      companyTrustyIdentifier: companyTrustyIdentifier\n    });\n    products.push(_product);\n    productToId[productId] = newProductId;\n    emit ProductCreated(newProductId, name, productId, companyTrustyIdentifier);\n  }\n\n  function getFacilityFromIdentifier(uint id) public view returns (string memory, string memory, string memory, string memory, address)\n  {\n    return (\n      products[id].name,\n      products[id].productId,\n      products[id].metadataURI,\n      products[id].hashMetadata,\n      products[id].companyTrustyIdentifier\n    );\n  }\n}",
  "sourcePath": "/Users/alessandrochelli/softwareProjects/Trusty/trusty-web3-contracts/product_contract/contracts/Product.sol",
  "compiler": {
    "name": "solc",
    "version": "0.4.24+commit.e67f0147.Emscripten.clang"
  },
  "schemaVersion": "2.0.1",
  "updatedAt": "2019-09-04T12:57:51.240Z"
}