{
  "contractName": "Facility",
  "abi": [
    {
      "anonymous": false,
      "inputs": [
        {
          "indexed": false,
          "name": "_id",
          "type": "uint256"
        },
        {
          "indexed": false,
          "name": "_name",
          "type": "string"
        },
        {
          "indexed": false,
          "name": "facilityId",
          "type": "string"
        },
        {
          "indexed": true,
          "name": "_companyTrustyIdentifier",
          "type": "address"
        }
      ],
      "name": "FacilityCreated",
      "type": "event"
    },
    {
      "constant": false,
      "inputs": [
        {
          "name": "name",
          "type": "string"
        },
        {
          "name": "facilityId",
          "type": "string"
        },
        {
          "name": "metadataURI",
          "type": "string"
        },
        {
          "name": "hashMetadata",
          "type": "string"
        },
        {
          "name": "companyTrustyIdentifier",
          "type": "address"
        }
      ],
      "name": "createFacility",
      "outputs": [],
      "payable": false,
      "stateMutability": "nonpayable",
      "type": "function"
    },
    {
      "constant": true,
      "inputs": [
        {
          "name": "id",
          "type": "uint256"
        }
      ],
      "name": "getFacilityFromIdentifier",
      "outputs": [
        {
          "name": "",
          "type": "string"
        },
        {
          "name": "",
          "type": "string"
        },
        {
          "name": "",
          "type": "string"
        },
        {
          "name": "",
          "type": "string"
        },
        {
          "name": "",
          "type": "address"
        }
      ],
      "payable": false,
      "stateMutability": "view",
      "type": "function"
    }
  ],
  "bytecode": "0x608060405234801561001057600080fd5b50610b0a806100206000396000f30060806040526004361061004c576000357c0100000000000000000000000000000000000000000000000000000000900463ffffffff168063ada3d78114610051578063ef987408146101ac575b600080fd5b34801561005d57600080fd5b506101aa600480360381019080803590602001908201803590602001908080601f0160208091040260200160405190810160405280939291908181526020018383808284378201915050505050509192919290803590602001908201803590602001908080601f0160208091040260200160405190810160405280939291908181526020018383808284378201915050505050509192919290803590602001908201803590602001908080601f0160208091040260200160405190810160405280939291908181526020018383808284378201915050505050509192919290803590602001908201803590602001908080601f0160208091040260200160405190810160405280939291908181526020018383808284378201915050505050509192919290803573ffffffffffffffffffffffffffffffffffffffff1690602001909291905050506103c9565b005b3480156101b857600080fd5b506101d7600480360381019080803590602001909291905050506106a8565b60405180806020018060200180602001806020018673ffffffffffffffffffffffffffffffffffffffff1673ffffffffffffffffffffffffffffffffffffffff16815260200185810385528a818151815260200191508051906020019080838360005b8381101561025557808201518184015260208101905061023a565b50505050905090810190601f1680156102825780820380516001836020036101000a031916815260200191505b50858103845289818151815260200191508051906020019080838360005b838110156102bb5780820151818401526020810190506102a0565b50505050905090810190601f1680156102e85780820380516001836020036101000a031916815260200191505b50858103835288818151815260200191508051906020019080838360005b83811015610321578082015181840152602081019050610306565b50505050905090810190601f16801561034e5780820380516001836020036101000a031916815260200191505b50858103825287818151815260200191508051906020019080838360005b8381101561038757808201518184015260208101905061036c565b50505050905090810190601f1680156103b45780820380516001836020036101000a031916815260200191505b50995050505050505050505060405180910390f35b60006103d36109f3565b600080549050915060a0604051908101604052808881526020018781526020018681526020018581526020018473ffffffffffffffffffffffffffffffffffffffff168152509050600081908060018154018082558091505090600182039060005260206000209060050201600090919290919091506000820151816000019080519060200190610465929190610a39565b506020820151816001019080519060200190610482929190610a39565b50604082015181600201908051906020019061049f929190610a39565b5060608201518160030190805190602001906104bc929190610a39565b5060808201518160040160006101000a81548173ffffffffffffffffffffffffffffffffffffffff021916908373ffffffffffffffffffffffffffffffffffffffff160217905550505050816001876040518082805190602001908083835b602083101515610540578051825260208201915060208101905060208303925061051b565b6001836020036101000a0380198251168184511680821785525050505050509050019150509081526020016040518091039020819055508273ffffffffffffffffffffffffffffffffffffffff167f026d732e17dab50b88ff3df9b51ad4dc6d92e39c95b13e2b165dea942edb6f30838989604051808481526020018060200180602001838103835285818151815260200191508051906020019080838360005b838110156105fc5780820151818401526020810190506105e1565b50505050905090810190601f1680156106295780820380516001836020036101000a031916815260200191505b50838103825284818151815260200191508051906020019080838360005b83811015610662578082015181840152602081019050610647565b50505050905090810190601f16801561068f5780820380516001836020036101000a031916815260200191505b509550505050505060405180910390a250505050505050565b606080606080600080868154811015156106be57fe5b90600052602060002090600502016000016000878154811015156106de57fe5b90600052602060002090600502016001016000888154811015156106fe57fe5b906000526020600020906005020160020160008981548110151561071e57fe5b906000526020600020906005020160030160008a81548110151561073e57fe5b906000526020600020906005020160040160009054906101000a900473ffffffffffffffffffffffffffffffffffffffff16848054600181600116156101000203166002900480601f0160208091040260200160405190810160405280929190818152602001828054600181600116156101000203166002900480156108055780601f106107da57610100808354040283529160200191610805565b820191906000526020600020905b8154815290600101906020018083116107e857829003601f168201915b50505050509450838054600181600116156101000203166002900480601f0160208091040260200160405190810160405280929190818152602001828054600181600116156101000203166002900480156108a15780601f10610876576101008083540402835291602001916108a1565b820191906000526020600020905b81548152906001019060200180831161088457829003601f168201915b50505050509350828054600181600116156101000203166002900480601f01602080910402602001604051908101604052809291908181526020018280546001816001161561010002031660029004801561093d5780601f106109125761010080835404028352916020019161093d565b820191906000526020600020905b81548152906001019060200180831161092057829003601f168201915b50505050509250818054600181600116156101000203166002900480601f0160208091040260200160405190810160405280929190818152602001828054600181600116156101000203166002900480156109d95780601f106109ae576101008083540402835291602001916109d9565b820191906000526020600020905b8154815290600101906020018083116109bc57829003601f168201915b505050505091509450945094509450945091939590929450565b60a06040519081016040528060608152602001606081526020016060815260200160608152602001600073ffffffffffffffffffffffffffffffffffffffff1681525090565b828054600181600116156101000203166002900490600052602060002090601f016020900481019282601f10610a7a57805160ff1916838001178555610aa8565b82800160010185558215610aa8579182015b82811115610aa7578251825591602001919060010190610a8c565b5b509050610ab59190610ab9565b5090565b610adb91905b80821115610ad7576000816000905550600101610abf565b5090565b905600a165627a7a72305820e0f39dea8eb16ad610ed98dfd55bf43ee6f1ccc88a6bb4d0574a143aca852ab60029",
  "source": "pragma solidity >=0.4.22 <0.6.0;\n\nimport \"./CompanyAccessControl.sol\";\n\ncontract Facility {\n  \n  struct Facility {\n    string name;\n    string facilityId;\n    string metadataURI;\n    string hashMetadata;\n    address companyTrustyIdentifier;\n  }\n\n  Facility[] facilities;\n  mapping (string => uint256) facilityToId;\n\n  event FacilityCreated(uint _id, string _name, string facilityId, address indexed _companyTrustyIdentifier);\n\n  function createFacility(string memory  name, string memory facilityId, string memory metadataURI, string memory hashMetadata, address companyTrustyIdentifier) public {\n    uint256 newFacilityId = facilities.length;\n    Facility memory _facility = Facility({\n      name: name,\n      facilityId: facilityId,\n      metadataURI: metadataURI,\n      hashMetadata: hashMetadata,\n      companyTrustyIdentifier: companyTrustyIdentifier\n    });\n    facilities.push(_facility);\n    facilityToId[facilityId] = newFacilityId;\n    emit FacilityCreated(newFacilityId, name, facilityId, companyTrustyIdentifier);\n  }\n\n  function getFacilityFromIdentifier(uint id) public view returns (string memory, string memory, string memory, string memory, address)\n  {\n    return (\n      facilities[id].name,\n      facilities[id].facilityId,\n      facilities[id].metadataURI,\n      facilities[id].hashMetadata,\n      facilities[id].companyTrustyIdentifier\n    );\n  }\n}",
  "sourcePath": "/Users/alessandrochelli/softwareProjects/Trusty/trusty-web3-contracts/facility_contract/contracts/Facility.sol",
  "compiler": {
    "name": "solc",
    "version": "0.4.24+commit.e67f0147.Emscripten.clang"
  },
  "schemaVersion": "2.0.1",
  "updatedAt": "2019-09-04T10:34:18.023Z"
}