{
  "contractName": "BusinessTransactions",
  "abi": [
    {
      "anonymous": false,
      "inputs": [
        {
          "indexed": false,
          "name": "trustyId",
          "type": "uint256"
        },
        {
          "indexed": true,
          "name": "product",
          "type": "uint256"
        },
        {
          "indexed": false,
          "name": "OrderId",
          "type": "string"
        },
        {
          "indexed": true,
          "name": "buyer",
          "type": "address"
        }
      ],
      "name": "PurchaseOrderEvents",
      "type": "event"
    },
    {
      "anonymous": false,
      "inputs": [
        {
          "indexed": false,
          "name": "trustyId",
          "type": "uint256"
        },
        {
          "indexed": true,
          "name": "instances",
          "type": "uint256"
        },
        {
          "indexed": false,
          "name": "OrderId",
          "type": "string"
        },
        {
          "indexed": false,
          "name": "DespatchAdviceId",
          "type": "string"
        },
        {
          "indexed": true,
          "name": "buyer",
          "type": "address"
        }
      ],
      "name": "DespatchAdviceEvents",
      "type": "event"
    },
    {
      "anonymous": false,
      "inputs": [
        {
          "indexed": false,
          "name": "trustyId",
          "type": "uint256"
        },
        {
          "indexed": true,
          "name": "instances",
          "type": "uint256"
        },
        {
          "indexed": false,
          "name": "OrderId",
          "type": "string"
        },
        {
          "indexed": false,
          "name": "DespatchAdviceId",
          "type": "string"
        },
        {
          "indexed": false,
          "name": "ReceiveAdviceId",
          "type": "string"
        },
        {
          "indexed": true,
          "name": "buyer",
          "type": "address"
        }
      ],
      "name": "ReceiveAdviceEvents",
      "type": "event"
    },
    {
      "constant": false,
      "inputs": [
        {
          "name": "OrderId",
          "type": "string"
        },
        {
          "name": "Buyer",
          "type": "address"
        },
        {
          "name": "metadata",
          "type": "string"
        },
        {
          "name": "hashMetadata",
          "type": "string"
        },
        {
          "name": "products",
          "type": "uint256[]"
        },
        {
          "name": "datetime",
          "type": "string"
        }
      ],
      "name": "PurchaseOrderMethod",
      "outputs": [],
      "payable": false,
      "stateMutability": "nonpayable",
      "type": "function"
    },
    {
      "constant": true,
      "inputs": [
        {
          "name": "id",
          "type": "uint256"
        }
      ],
      "name": "getPurchaseOrder",
      "outputs": [
        {
          "name": "",
          "type": "string"
        },
        {
          "name": "",
          "type": "string"
        },
        {
          "name": "",
          "type": "string"
        },
        {
          "name": "",
          "type": "uint256[]"
        },
        {
          "name": "",
          "type": "string"
        },
        {
          "name": "",
          "type": "address"
        }
      ],
      "payable": false,
      "stateMutability": "view",
      "type": "function"
    },
    {
      "constant": false,
      "inputs": [
        {
          "name": "OrderId",
          "type": "string"
        },
        {
          "name": "DespatchAdviceId",
          "type": "string"
        },
        {
          "name": "Seller",
          "type": "address"
        },
        {
          "name": "metadata",
          "type": "string"
        },
        {
          "name": "hashMetadata",
          "type": "string"
        },
        {
          "name": "instances",
          "type": "uint256[]"
        },
        {
          "name": "datetime",
          "type": "string"
        }
      ],
      "name": "DespatchAdviceMethod",
      "outputs": [],
      "payable": false,
      "stateMutability": "nonpayable",
      "type": "function"
    },
    {
      "constant": true,
      "inputs": [
        {
          "name": "id",
          "type": "uint256"
        }
      ],
      "name": "getDespatchAdvice",
      "outputs": [
        {
          "name": "",
          "type": "string"
        },
        {
          "name": "",
          "type": "string"
        },
        {
          "name": "",
          "type": "string"
        },
        {
          "name": "",
          "type": "string"
        },
        {
          "name": "",
          "type": "uint256[]"
        },
        {
          "name": "",
          "type": "string"
        },
        {
          "name": "",
          "type": "address"
        }
      ],
      "payable": false,
      "stateMutability": "view",
      "type": "function"
    },
    {
      "constant": false,
      "inputs": [
        {
          "name": "Buyer",
          "type": "address"
        },
        {
          "name": "OrderId",
          "type": "string"
        },
        {
          "name": "DespatchAdviceId",
          "type": "string"
        },
        {
          "name": "ReceiveAdviceId",
          "type": "string"
        },
        {
          "name": "metadata",
          "type": "string"
        },
        {
          "name": "hashMetadata",
          "type": "string"
        },
        {
          "name": "instances",
          "type": "uint256[]"
        },
        {
          "name": "datetime",
          "type": "string"
        }
      ],
      "name": "ReceiveAdviceMethod",
      "outputs": [],
      "payable": false,
      "stateMutability": "nonpayable",
      "type": "function"
    },
    {
      "constant": true,
      "inputs": [
        {
          "name": "id",
          "type": "uint256"
        }
      ],
      "name": "getReceiveAdvice",
      "outputs": [
        {
          "name": "",
          "type": "string"
        },
        {
          "name": "",
          "type": "string"
        },
        {
          "name": "",
          "type": "string"
        },
        {
          "name": "",
          "type": "string"
        },
        {
          "name": "",
          "type": "uint256[]"
        },
        {
          "name": "",
          "type": "string"
        },
        {
          "name": "",
          "type": "address"
        }
      ],
      "payable": false,
      "stateMutability": "view",
      "type": "function"
    }
  ],
  "bytecode": "0x608060405234801561001057600080fd5b506125ab806100206000396000f300608060405260043610610078576000357c0100000000000000000000000000000000000000000000000000000000900463ffffffff16806376cb29571461007d578063bc797c4e1461034e578063df3e1d97146104ec578063ef4b59b914610751578063f1dd6fbd14610935578063f7019d7d14610b5f575b600080fd5b34801561008957600080fd5b506100a860048036038101908080359060200190929190505050610e30565b604051808060200180602001806020018060200180602001806020018873ffffffffffffffffffffffffffffffffffffffff1673ffffffffffffffffffffffffffffffffffffffff16815260200187810387528e818151815260200191508051906020019080838360005b8381101561012e578082015181840152602081019050610113565b50505050905090810190601f16801561015b5780820380516001836020036101000a031916815260200191505b5087810386528d818151815260200191508051906020019080838360005b83811015610194578082015181840152602081019050610179565b50505050905090810190601f1680156101c15780820380516001836020036101000a031916815260200191505b5087810385528c818151815260200191508051906020019080838360005b838110156101fa5780820151818401526020810190506101df565b50505050905090810190601f1680156102275780820380516001836020036101000a031916815260200191505b5087810384528b818151815260200191508051906020019080838360005b83811015610260578082015181840152602081019050610245565b50505050905090810190601f16801561028d5780820380516001836020036101000a031916815260200191505b5087810383528a818151815260200191508051906020019060200280838360005b838110156102c95780820151818401526020810190506102ae565b50505050905001878103825289818151815260200191508051906020019080838360005b838110156103085780820151818401526020810190506102ed565b50505050905090810190601f1680156103355780820380516001836020036101000a031916815260200191505b509d505050505050505050505050505060405180910390f35b34801561035a57600080fd5b506104ea600480360381019080803590602001908201803590602001908080601f0160208091040260200160405190810160405280939291908181526020018383808284378201915050505050509192919290803573ffffffffffffffffffffffffffffffffffffffff169060200190929190803590602001908201803590602001908080601f0160208091040260200160405190810160405280939291908181526020018383808284378201915050505050509192919290803590602001908201803590602001908080601f016020809104026020016040519081016040528093929190818152602001838380828437820191505050505050919291929080359060200190820180359060200190808060200260200160405190810160405280939291908181526020018383602002808284378201915050505050509192919290803590602001908201803590602001908080601f01602080910402602001604051908101604052809392919081815260200183838082843782019150505050505091929192905050506112b3565b005b3480156104f857600080fd5b506105176004803603810190808035906020019092919050505061150e565b6040518080602001806020018060200180602001806020018773ffffffffffffffffffffffffffffffffffffffff1673ffffffffffffffffffffffffffffffffffffffff16815260200186810386528c818151815260200191508051906020019080838360005b8381101561059957808201518184015260208101905061057e565b50505050905090810190601f1680156105c65780820380516001836020036101000a031916815260200191505b5086810385528b818151815260200191508051906020019080838360005b838110156105ff5780820151818401526020810190506105e4565b50505050905090810190601f16801561062c5780820380516001836020036101000a031916815260200191505b5086810384528a818151815260200191508051906020019080838360005b8381101561066557808201518184015260208101905061064a565b50505050905090810190601f1680156106925780820380516001836020036101000a031916815260200191505b50868103835289818151815260200191508051906020019060200280838360005b838110156106ce5780820151818401526020810190506106b3565b50505050905001868103825288818151815260200191508051906020019080838360005b8381101561070d5780820151818401526020810190506106f2565b50505050905090810190601f16801561073a5780820380516001836020036101000a031916815260200191505b509b50505050505050505050505060405180910390f35b34801561075d57600080fd5b50610933600480360381019080803590602001908201803590602001908080601f0160208091040260200160405190810160405280939291908181526020018383808284378201915050505050509192919290803590602001908201803590602001908080601f0160208091040260200160405190810160405280939291908181526020018383808284378201915050505050509192919290803573ffffffffffffffffffffffffffffffffffffffff169060200190929190803590602001908201803590602001908080601f0160208091040260200160405190810160405280939291908181526020018383808284378201915050505050509192919290803590602001908201803590602001908080601f016020809104026020016040519081016040528093929190818152602001838380828437820191505050505050919291929080359060200190820180359060200190808060200260200160405190810160405280939291908181526020018383602002808284378201915050505050509192919290803590602001908201803590602001908080601f01602080910402602001604051908101604052809392919081815260200183838082843782019150505050505091929192905050506118cf565b005b34801561094157600080fd5b50610b5d600480360381019080803573ffffffffffffffffffffffffffffffffffffffff169060200190929190803590602001908201803590602001908080601f0160208091040260200160405190810160405280939291908181526020018383808284378201915050505050509192919290803590602001908201803590602001908080601f0160208091040260200160405190810160405280939291908181526020018383808284378201915050505050509192919290803590602001908201803590602001908080601f0160208091040260200160405190810160405280939291908181526020018383808284378201915050505050509192919290803590602001908201803590602001908080601f0160208091040260200160405190810160405280939291908181526020018383808284378201915050505050509192919290803590602001908201803590602001908080601f016020809104026020016040519081016040528093929190818152602001838380828437820191505050505050919291929080359060200190820180359060200190808060200260200160405190810160405280939291908181526020018383602002808284378201915050505050509192919290803590602001908201803590602001908080601f0160208091040260200160405190810160405280939291908181526020018383808284378201915050505050509192919290505050611bbb565b005b348015610b6b57600080fd5b50610b8a60048036038101908080359060200190929190505050611f15565b604051808060200180602001806020018060200180602001806020018873ffffffffffffffffffffffffffffffffffffffff1673ffffffffffffffffffffffffffffffffffffffff16815260200187810387528e818151815260200191508051906020019080838360005b83811015610c10578082015181840152602081019050610bf5565b50505050905090810190601f168015610c3d5780820380516001836020036101000a031916815260200191505b5087810386528d818151815260200191508051906020019080838360005b83811015610c76578082015181840152602081019050610c5b565b50505050905090810190601f168015610ca35780820380516001836020036101000a031916815260200191505b5087810385528c818151815260200191508051906020019080838360005b83811015610cdc578082015181840152602081019050610cc1565b50505050905090810190601f168015610d095780820380516001836020036101000a031916815260200191505b5087810384528b818151815260200191508051906020019080838360005b83811015610d42578082015181840152602081019050610d27565b50505050905090810190601f168015610d6f5780820380516001836020036101000a031916815260200191505b5087810383528a818151815260200191508051906020019060200280838360005b83811015610dab578082015181840152602081019050610d90565b50505050905001878103825289818151815260200191508051906020019080838360005b83811015610dea578082015181840152602081019050610dcf565b50505050905090810190601f168015610e175780820380516001836020036101000a031916815260200191505b509d505050505050505050505050505060405180910390f35b6060806060806060806000600188815481101515610e4a57fe5b9060005260206000209060070201600001600189815481101515610e6a57fe5b906000526020600020906007020160010160018a815481101515610e8a57fe5b906000526020600020906007020160020160018b815481101515610eaa57fe5b906000526020600020906007020160030160018c815481101515610eca57fe5b906000526020600020906007020160040160018d815481101515610eea57fe5b906000526020600020906007020160050160018e815481101515610f0a57fe5b906000526020600020906007020160060160009054906101000a900473ffffffffffffffffffffffffffffffffffffffff16868054600181600116156101000203166002900480601f016020809104026020016040519081016040528092919081815260200182805460018160011615610100020316600290048015610fd15780601f10610fa657610100808354040283529160200191610fd1565b820191906000526020600020905b815481529060010190602001808311610fb457829003601f168201915b50505050509650858054600181600116156101000203166002900480601f01602080910402602001604051908101604052809291908181526020018280546001816001161561010002031660029004801561106d5780601f106110425761010080835404028352916020019161106d565b820191906000526020600020905b81548152906001019060200180831161105057829003601f168201915b50505050509550848054600181600116156101000203166002900480601f0160208091040260200160405190810160405280929190818152602001828054600181600116156101000203166002900480156111095780601f106110de57610100808354040283529160200191611109565b820191906000526020600020905b8154815290600101906020018083116110ec57829003601f168201915b50505050509450838054600181600116156101000203166002900480601f0160208091040260200160405190810160405280929190818152602001828054600181600116156101000203166002900480156111a55780601f1061117a576101008083540402835291602001916111a5565b820191906000526020600020905b81548152906001019060200180831161118857829003601f168201915b50505050509350828054806020026020016040519081016040528092919081815260200182805480156111f757602002820191906000526020600020905b8154815260200190600101908083116111e3575b50505050509250818054600181600116156101000203166002900480601f0160208091040260200160405190810160405280929190818152602001828054600181600116156101000203166002900480156112935780601f1061126857610100808354040283529160200191611293565b820191906000526020600020905b81548152906001019060200180831161127657829003601f168201915b505050505091509650965096509650965096509650919395979092949650565b6000806112be612398565b6000805490509250600091505b84518210156113b4578773ffffffffffffffffffffffffffffffffffffffff1685838151811015156112f957fe5b906020019060200201517f482f52c01df1014d19f09ae7c755a731febded08d30619a1499e6170bcf87c45858c6040518083815260200180602001828103825283818151815260200191508051906020019080838360005b8381101561136c578082015181840152602081019050611351565b50505050905090810190601f1680156113995780820380516001836020036101000a031916815260200191505b50935050505060405180910390a381806001019250506112cb565b60c0604051908101604052808a81526020018881526020018781526020018681526020018581526020018973ffffffffffffffffffffffffffffffffffffffff1681525090506000819080600181540180825580915050906001820390600052602060002090600602016000909192909190915060008201518160000190805190602001906114449291906123e5565b5060208201518160010190805190602001906114619291906123e5565b50604082015181600201908051906020019061147e9291906123e5565b50606082015181600301908051906020019061149b929190612465565b5060808201518160040190805190602001906114b89291906123e5565b5060a08201518160050160006101000a81548173ffffffffffffffffffffffffffffffffffffffff021916908373ffffffffffffffffffffffffffffffffffffffff160217905550505050505050505050505050565b60608060608060606000808781548110151561152657fe5b906000526020600020906006020160000160008881548110151561154657fe5b906000526020600020906006020160010160008981548110151561156657fe5b906000526020600020906006020160020160008a81548110151561158657fe5b906000526020600020906006020160030160008b8154811015156115a657fe5b906000526020600020906006020160040160008c8154811015156115c657fe5b906000526020600020906006020160050160009054906101000a900473ffffffffffffffffffffffffffffffffffffffff16858054600181600116156101000203166002900480601f01602080910402602001604051908101604052809291908181526020018280546001816001161561010002031660029004801561168d5780601f106116625761010080835404028352916020019161168d565b820191906000526020600020905b81548152906001019060200180831161167057829003601f168201915b50505050509550848054600181600116156101000203166002900480601f0160208091040260200160405190810160405280929190818152602001828054600181600116156101000203166002900480156117295780601f106116fe57610100808354040283529160200191611729565b820191906000526020600020905b81548152906001019060200180831161170c57829003601f168201915b50505050509450838054600181600116156101000203166002900480601f0160208091040260200160405190810160405280929190818152602001828054600181600116156101000203166002900480156117c55780601f1061179a576101008083540402835291602001916117c5565b820191906000526020600020905b8154815290600101906020018083116117a857829003601f168201915b505050505093508280548060200260200160405190810160405280929190818152602001828054801561181757602002820191906000526020600020905b815481526020019060010190808311611803575b50505050509250818054600181600116156101000203166002900480601f0160208091040260200160405190810160405280929190818152602001828054600181600116156101000203166002900480156118b35780601f10611888576101008083540402835291602001916118b3565b820191906000526020600020905b81548152906001019060200180831161189657829003601f168201915b5050505050915095509550955095509550955091939550919395565b6000806118da6124b2565b6001805490509250600091505b8451821015611a3d578773ffffffffffffffffffffffffffffffffffffffff16858381518110151561191557fe5b906020019060200201517fe9e97d94e799a10610e5fffd503799eab35f418752361e304fc52d4684b712c5858d8d604051808481526020018060200180602001838103835285818151815260200191508051906020019080838360005b8381101561198d578082015181840152602081019050611972565b50505050905090810190601f1680156119ba5780820380516001836020036101000a031916815260200191505b50838103825284818151815260200191508051906020019080838360005b838110156119f35780820151818401526020810190506119d8565b50505050905090810190601f168015611a205780820380516001836020036101000a031916815260200191505b509550505050505060405180910390a381806001019250506118e7565b60e0604051908101604052808b81526020018a81526020018881526020018781526020018681526020018581526020018973ffffffffffffffffffffffffffffffffffffffff168152509050600181908060018154018082558091505090600182039060005260206000209060070201600090919290919091506000820151816000019080519060200190611ad39291906123e5565b506020820151816001019080519060200190611af09291906123e5565b506040820151816002019080519060200190611b0d9291906123e5565b506060820151816003019080519060200190611b2a9291906123e5565b506080820151816004019080519060200190611b47929190612465565b5060a0820151816005019080519060200190611b649291906123e5565b5060c08201518160060160006101000a81548173ffffffffffffffffffffffffffffffffffffffff021916908373ffffffffffffffffffffffffffffffffffffffff16021790555050505050505050505050505050565b600080611bc6612506565b6002805490509250600091505b8451821015611d96578a73ffffffffffffffffffffffffffffffffffffffff168583815181101515611c0157fe5b906020019060200201517f8e917470a993d323e35f22555dc585fefb7e42836ee197aff48e1960ad8abe91858d8d8d60405180858152602001806020018060200180602001848103845287818151815260200191508051906020019080838360005b83811015611c7e578082015181840152602081019050611c63565b50505050905090810190601f168015611cab5780820380516001836020036101000a031916815260200191505b50848103835286818151815260200191508051906020019080838360005b83811015611ce4578082015181840152602081019050611cc9565b50505050905090810190601f168015611d115780820380516001836020036101000a031916815260200191505b50848103825285818151815260200191508051906020019080838360005b83811015611d4a578082015181840152602081019050611d2f565b50505050905090810190601f168015611d775780820380516001836020036101000a031916815260200191505b5097505050505050505060405180910390a38180600101925050611bd3565b60e0604051908101604052808b81526020018981526020018881526020018781526020018681526020018581526020018c73ffffffffffffffffffffffffffffffffffffffff168152509050600281908060018154018082558091505090600182039060005260206000209060070201600090919290919091506000820151816000019080519060200190611e2c9291906123e5565b506020820151816001019080519060200190611e499291906123e5565b506040820151816002019080519060200190611e669291906123e5565b506060820151816003019080519060200190611e839291906123e5565b506080820151816004019080519060200190611ea0929190612465565b5060a0820151816005019080519060200190611ebd9291906123e5565b5060c08201518160060160006101000a81548173ffffffffffffffffffffffffffffffffffffffff021916908373ffffffffffffffffffffffffffffffffffffffff1602179055505050505050505050505050505050565b6060806060806060806000600288815481101515611f2f57fe5b9060005260206000209060070201600001600289815481101515611f4f57fe5b906000526020600020906007020160010160028a815481101515611f6f57fe5b906000526020600020906007020160020160028b815481101515611f8f57fe5b906000526020600020906007020160030160028c815481101515611faf57fe5b906000526020600020906007020160040160028d815481101515611fcf57fe5b906000526020600020906007020160050160028e815481101515611fef57fe5b906000526020600020906007020160060160009054906101000a900473ffffffffffffffffffffffffffffffffffffffff16868054600181600116156101000203166002900480601f0160208091040260200160405190810160405280929190818152602001828054600181600116156101000203166002900480156120b65780601f1061208b576101008083540402835291602001916120b6565b820191906000526020600020905b81548152906001019060200180831161209957829003601f168201915b50505050509650858054600181600116156101000203166002900480601f0160208091040260200160405190810160405280929190818152602001828054600181600116156101000203166002900480156121525780601f1061212757610100808354040283529160200191612152565b820191906000526020600020905b81548152906001019060200180831161213557829003601f168201915b50505050509550848054600181600116156101000203166002900480601f0160208091040260200160405190810160405280929190818152602001828054600181600116156101000203166002900480156121ee5780601f106121c3576101008083540402835291602001916121ee565b820191906000526020600020905b8154815290600101906020018083116121d157829003601f168201915b50505050509450838054600181600116156101000203166002900480601f01602080910402602001604051908101604052809291908181526020018280546001816001161561010002031660029004801561228a5780601f1061225f5761010080835404028352916020019161228a565b820191906000526020600020905b81548152906001019060200180831161226d57829003601f168201915b50505050509350828054806020026020016040519081016040528092919081815260200182805480156122dc57602002820191906000526020600020905b8154815260200190600101908083116122c8575b50505050509250818054600181600116156101000203166002900480601f0160208091040260200160405190810160405280929190818152602001828054600181600116156101000203166002900480156123785780601f1061234d57610100808354040283529160200191612378565b820191906000526020600020905b81548152906001019060200180831161235b57829003601f168201915b505050505091509650965096509650965096509650919395979092949650565b60c0604051908101604052806060815260200160608152602001606081526020016060815260200160608152602001600073ffffffffffffffffffffffffffffffffffffffff1681525090565b828054600181600116156101000203166002900490600052602060002090601f016020900481019282601f1061242657805160ff1916838001178555612454565b82800160010185558215612454579182015b82811115612453578251825591602001919060010190612438565b5b509050612461919061255a565b5090565b8280548282559060005260206000209081019282156124a1579160200282015b828111156124a0578251825591602001919060010190612485565b5b5090506124ae919061255a565b5090565b60e060405190810160405280606081526020016060815260200160608152602001606081526020016060815260200160608152602001600073ffffffffffffffffffffffffffffffffffffffff1681525090565b60e060405190810160405280606081526020016060815260200160608152602001606081526020016060815260200160608152602001600073ffffffffffffffffffffffffffffffffffffffff1681525090565b61257c91905b80821115612578576000816000905550600101612560565b5090565b905600a165627a7a72305820721db66d408899103c005b1be722c044c9e264c935dd11b6faba30bf516f155c0029",
  "source": "pragma solidity >=0.4.22 <0.6.0;\n\ncontract BusinessTransactions {\n    struct PurchaseOrder{\n        string OrderId;\n        string metadata;\n        string hashMetadata;\n        uint[] products;\n        string datetime;\n        address Buyer;\n    }\n    struct DespatchAdvice{\n        string OrderId;\n        string DespatchAdviceId;\n        string metadata;\n        string hashMetadata;\n        uint[] instances;\n        string datetime;\n        address Seller;\n    }\n    struct ReceiveAdvice{\n        string OrderId;\n        string ReceiveAdviceId;\n        string metadata;\n        string hashMetadata;\n        uint[] instances;\n        string datetime;\n        address Buyer;\n    }\n    \n    \n    PurchaseOrder[] purchaseOrders;\n    DespatchAdvice[] despatchAdvices;\n    ReceiveAdvice[] receiveAdvices;\n    \n    event PurchaseOrderEvents(uint trustyId, uint indexed product, string  OrderId, address indexed buyer);  \n    event DespatchAdviceEvents(uint trustyId, uint indexed instances, string OrderId, string DespatchAdviceId, address indexed buyer);  \n    event ReceiveAdviceEvents(uint trustyId, uint indexed instances, string OrderId, string DespatchAdviceId, string ReceiveAdviceId, address indexed buyer);  \n    \n    function PurchaseOrderMethod(string memory OrderId,  address Buyer, string memory metadata, string memory hashMetadata, uint[] memory products, string memory datetime) public {\n        uint trustyId = purchaseOrders.length;\n        for(uint i = 0; i<products.length; i++){\n            emit PurchaseOrderEvents(trustyId, products[i], OrderId, Buyer);\n        }\n        PurchaseOrder memory _purchaseOrder = PurchaseOrder({\n            OrderId:OrderId,\n            metadata: metadata,\n            hashMetadata: hashMetadata,\n            products:products,\n            datetime:datetime,\n            Buyer:Buyer\n        });\n        purchaseOrders.push(_purchaseOrder);\n  }\n  \n  function getPurchaseOrder(uint id) public view returns (string memory,string memory,string memory,uint[] memory,string memory,address){\n    return (\n      purchaseOrders[id].OrderId,\n      purchaseOrders[id].metadata,\n      purchaseOrders[id].hashMetadata,\n      purchaseOrders[id].products,\n      purchaseOrders[id].datetime,\n      purchaseOrders[id].Buyer\n    );\n  }\n\n  function DespatchAdviceMethod(string memory OrderId, string memory DespatchAdviceId, address Seller, string memory metadata, string memory hashMetadata,  uint[] memory instances, string memory datetime) public {\n        uint trustyId = despatchAdvices.length;\n        for(uint i = 0; i<instances.length; i++){\n            emit DespatchAdviceEvents(trustyId, instances[i], OrderId, DespatchAdviceId, Seller);\n        }\n        DespatchAdvice memory _despatchAdvice = DespatchAdvice({\n            OrderId:OrderId,\n            DespatchAdviceId: DespatchAdviceId,\n            metadata: metadata,\n            hashMetadata: hashMetadata,\n            instances:instances,\n            datetime:datetime,\n            Seller:Seller\n        });\n        despatchAdvices.push(_despatchAdvice);\n  }\n  function getDespatchAdvice(uint id) public view returns (string memory, string memory, string memory, string memory, uint[] memory, string memory, address){\n      return (\n        despatchAdvices[id].OrderId,\n        despatchAdvices[id].DespatchAdviceId,\n        despatchAdvices[id].metadata,\n        despatchAdvices[id].hashMetadata,\n        despatchAdvices[id].instances,\n        despatchAdvices[id].datetime,\n        despatchAdvices[id].Seller\n    );\n  }\n  \n  function ReceiveAdviceMethod(address Buyer, string memory OrderId, string memory DespatchAdviceId, string memory ReceiveAdviceId, string memory metadata, string memory hashMetadata, uint[] memory instances, string memory datetime) public {\n        uint trustyId = receiveAdvices.length;\n        for(uint i = 0; i<instances.length; i++){\n            emit ReceiveAdviceEvents(trustyId, instances[i], OrderId, DespatchAdviceId, ReceiveAdviceId, Buyer);\n        }\n        ReceiveAdvice memory _receiveAdvice = ReceiveAdvice({\n            OrderId:OrderId,\n            ReceiveAdviceId: ReceiveAdviceId,\n            metadata: metadata,\n            hashMetadata: hashMetadata,\n            instances:instances,\n            datetime:datetime,\n            Buyer:Buyer\n        });\n        receiveAdvices.push(_receiveAdvice);\n  }\n  function getReceiveAdvice(uint id) public view returns (string memory, string memory, string memory, string memory, uint[] memory, string memory, address){\n      return (\n        receiveAdvices[id].OrderId,\n        receiveAdvices[id].ReceiveAdviceId,\n        receiveAdvices[id].metadata,\n        receiveAdvices[id].hashMetadata,\n        receiveAdvices[id].instances,\n        receiveAdvices[id].datetime,\n        receiveAdvices[id].Buyer\n    );\n  }\n}\n",
  "sourcePath": "/Users/alessandrochelli/softwareProjects/Trusty/trusty-web3-contracts/BusinessTransactions_contract/contracts/BusinessTransactions.sol",
  "compiler": {
    "name": "solc",
    "version": "0.4.24+commit.e67f0147.Emscripten.clang"
  },
  "schemaVersion": "2.0.1",
  "updatedAt": "2019-08-30T18:43:04.808Z"
}