{
  "contractName": "Instance",
  "abi": [
    {
      "anonymous": false,
      "inputs": [
        {
          "indexed": false,
          "name": "type_element",
          "type": "string"
        },
        {
          "indexed": true,
          "name": "element",
          "type": "uint256"
        },
        {
          "indexed": true,
          "name": "transformationId",
          "type": "uint256"
        },
        {
          "indexed": false,
          "name": "facilityId",
          "type": "string"
        },
        {
          "indexed": false,
          "name": "datetime",
          "type": "string"
        },
        {
          "indexed": false,
          "name": "business_event",
          "type": "string"
        },
        {
          "indexed": true,
          "name": "companyTrustyIdentifier",
          "type": "address"
        }
      ],
      "name": "TransformationSupportEvents",
      "type": "event"
    },
    {
      "anonymous": false,
      "inputs": [
        {
          "indexed": false,
          "name": "instanceId",
          "type": "string"
        },
        {
          "indexed": true,
          "name": "trustyInstanceId",
          "type": "uint256"
        },
        {
          "indexed": false,
          "name": "datetime",
          "type": "string"
        },
        {
          "indexed": false,
          "name": "facilityId",
          "type": "string"
        },
        {
          "indexed": false,
          "name": "business_event",
          "type": "string"
        },
        {
          "indexed": true,
          "name": "_companyTrustyIdentifier",
          "type": "address"
        }
      ],
      "name": "CommissionEvents",
      "type": "event"
    },
    {
      "anonymous": false,
      "inputs": [
        {
          "indexed": false,
          "name": "eventTrustyId",
          "type": "uint256"
        },
        {
          "indexed": false,
          "name": "eventId",
          "type": "string"
        },
        {
          "indexed": false,
          "name": "instanceId",
          "type": "string"
        },
        {
          "indexed": false,
          "name": "datetime",
          "type": "string"
        },
        {
          "indexed": false,
          "name": "facilityId",
          "type": "string"
        },
        {
          "indexed": false,
          "name": "business_event",
          "type": "string"
        },
        {
          "indexed": false,
          "name": "metadataURI",
          "type": "string"
        },
        {
          "indexed": false,
          "name": "metadataHash",
          "type": "string"
        },
        {
          "indexed": true,
          "name": "_companyTrustyIdentifier",
          "type": "address"
        }
      ],
      "name": "ObservationEvent",
      "type": "event"
    },
    {
      "constant": false,
      "inputs": [
        {
          "name": "eventId",
          "type": "string"
        },
        {
          "name": "instanceId",
          "type": "string"
        },
        {
          "name": "productId",
          "type": "string"
        },
        {
          "name": "metadataURI",
          "type": "string"
        },
        {
          "name": "hashMetadata",
          "type": "string"
        },
        {
          "name": "datetime",
          "type": "string"
        },
        {
          "name": "facilityId",
          "type": "string"
        },
        {
          "name": "business_event",
          "type": "string"
        },
        {
          "name": "_companyTrustyIdentifier",
          "type": "address"
        }
      ],
      "name": "createInstance",
      "outputs": [],
      "payable": false,
      "stateMutability": "nonpayable",
      "type": "function"
    },
    {
      "constant": true,
      "inputs": [
        {
          "name": "id",
          "type": "uint256"
        }
      ],
      "name": "getInstanceFromId",
      "outputs": [
        {
          "name": "",
          "type": "string"
        },
        {
          "name": "",
          "type": "string"
        },
        {
          "name": "",
          "type": "string"
        },
        {
          "name": "",
          "type": "string"
        },
        {
          "name": "",
          "type": "address"
        }
      ],
      "payable": false,
      "stateMutability": "view",
      "type": "function"
    },
    {
      "constant": false,
      "inputs": [
        {
          "name": "eventId",
          "type": "string"
        },
        {
          "name": "instanceId",
          "type": "string"
        },
        {
          "name": "datetime",
          "type": "string"
        },
        {
          "name": "facilityId",
          "type": "string"
        },
        {
          "name": "business_event",
          "type": "string"
        },
        {
          "name": "metadataURI",
          "type": "string"
        },
        {
          "name": "metadataHash",
          "type": "string"
        },
        {
          "name": "_companyTrustyIdentifier",
          "type": "address"
        }
      ],
      "name": "createObservationEvent",
      "outputs": [],
      "payable": false,
      "stateMutability": "nonpayable",
      "type": "function"
    },
    {
      "constant": false,
      "inputs": [
        {
          "name": "eventId",
          "type": "string"
        },
        {
          "name": "input",
          "type": "uint256[]"
        },
        {
          "name": "output",
          "type": "uint256[]"
        },
        {
          "name": "facilityId",
          "type": "string"
        },
        {
          "name": "datetime",
          "type": "string"
        },
        {
          "name": "business_event",
          "type": "string"
        },
        {
          "name": "metadataURI",
          "type": "string"
        },
        {
          "name": "metadataHash",
          "type": "string"
        },
        {
          "name": "companyTrustyIdentifier",
          "type": "address"
        }
      ],
      "name": "TransformationMethod",
      "outputs": [],
      "payable": false,
      "stateMutability": "nonpayable",
      "type": "function"
    },
    {
      "constant": true,
      "inputs": [
        {
          "name": "id",
          "type": "uint256"
        }
      ],
      "name": "getTransformationFromId",
      "outputs": [
        {
          "name": "",
          "type": "uint256[]"
        },
        {
          "name": "",
          "type": "uint256[]"
        },
        {
          "name": "",
          "type": "string"
        },
        {
          "name": "",
          "type": "string"
        },
        {
          "name": "",
          "type": "address"
        }
      ],
      "payable": false,
      "stateMutability": "view",
      "type": "function"
    }
  ],
  "bytecode": "0x608060405234801561001057600080fd5b50612222806100206000396000f30060806040526004361061006d576000357c0100000000000000000000000000000000000000000000000000000000900463ffffffff16806326f2a3001461007257806345797e2e146102e55780636c19e33f14610502578063a60bef8f1461072f578063d625789c14610904575b600080fd5b34801561007e57600080fd5b506102e3600480360381019080803590602001908201803590602001908080601f0160208091040260200160405190810160405280939291908181526020018383808284378201915050505050509192919290803590602001908201803590602001908080601f0160208091040260200160405190810160405280939291908181526020018383808284378201915050505050509192919290803590602001908201803590602001908080601f0160208091040260200160405190810160405280939291908181526020018383808284378201915050505050509192919290803590602001908201803590602001908080601f0160208091040260200160405190810160405280939291908181526020018383808284378201915050505050509192919290803590602001908201803590602001908080601f0160208091040260200160405190810160405280939291908181526020018383808284378201915050505050509192919290803590602001908201803590602001908080601f0160208091040260200160405190810160405280939291908181526020018383808284378201915050505050509192919290803590602001908201803590602001908080601f0160208091040260200160405190810160405280939291908181526020018383808284378201915050505050509192919290803590602001908201803590602001908080601f0160208091040260200160405190810160405280939291908181526020018383808284378201915050505050509192919290803573ffffffffffffffffffffffffffffffffffffffff169060200190929190505050610b71565b005b3480156102f157600080fd5b5061031060048036038101908080359060200190929190505050610fe1565b60405180806020018060200180602001806020018673ffffffffffffffffffffffffffffffffffffffff1673ffffffffffffffffffffffffffffffffffffffff16815260200185810385528a818151815260200191508051906020019080838360005b8381101561038e578082015181840152602081019050610373565b50505050905090810190601f1680156103bb5780820380516001836020036101000a031916815260200191505b50858103845289818151815260200191508051906020019080838360005b838110156103f45780820151818401526020810190506103d9565b50505050905090810190601f1680156104215780820380516001836020036101000a031916815260200191505b50858103835288818151815260200191508051906020019080838360005b8381101561045a57808201518184015260208101905061043f565b50505050905090810190601f1680156104875780820380516001836020036101000a031916815260200191505b50858103825287818151815260200191508051906020019080838360005b838110156104c05780820151818401526020810190506104a5565b50505050905090810190601f1680156104ed5780820380516001836020036101000a031916815260200191505b50995050505050505050505060405180910390f35b34801561050e57600080fd5b5061072d600480360381019080803590602001908201803590602001908080601f0160208091040260200160405190810160405280939291908181526020018383808284378201915050505050509192919290803590602001908201803590602001908080601f0160208091040260200160405190810160405280939291908181526020018383808284378201915050505050509192919290803590602001908201803590602001908080601f0160208091040260200160405190810160405280939291908181526020018383808284378201915050505050509192919290803590602001908201803590602001908080601f0160208091040260200160405190810160405280939291908181526020018383808284378201915050505050509192919290803590602001908201803590602001908080601f0160208091040260200160405190810160405280939291908181526020018383808284378201915050505050509192919290803590602001908201803590602001908080601f0160208091040260200160405190810160405280939291908181526020018383808284378201915050505050509192919290803590602001908201803590602001908080601f0160208091040260200160405190810160405280939291908181526020018383808284378201915050505050509192919290803573ffffffffffffffffffffffffffffffffffffffff16906020019092919050505061132c565b005b34801561073b57600080fd5b5061075a600480360381019080803590602001909291905050506117b4565b60405180806020018060200180602001806020018673ffffffffffffffffffffffffffffffffffffffff1673ffffffffffffffffffffffffffffffffffffffff16815260200185810385528a818151815260200191508051906020019060200280838360005b838110156107db5780820151818401526020810190506107c0565b50505050905001858103845289818151815260200191508051906020019060200280838360005b8381101561081d578082015181840152602081019050610802565b50505050905001858103835288818151815260200191508051906020019080838360005b8381101561085c578082015181840152602081019050610841565b50505050905090810190601f1680156108895780820380516001836020036101000a031916815260200191505b50858103825287818151815260200191508051906020019080838360005b838110156108c25780820151818401526020810190506108a7565b50505050905090810190601f1680156108ef5780820380516001836020036101000a031916815260200191505b50995050505050505050505060405180910390f35b34801561091057600080fd5b50610b6f600480360381019080803590602001908201803590602001908080601f01602080910402602001604051908101604052809392919081815260200183838082843782019150505050505091929192908035906020019082018035906020019080806020026020016040519081016040528093929190818152602001838360200280828437820191505050505050919291929080359060200190820180359060200190808060200260200160405190810160405280939291908181526020018383602002808284378201915050505050509192919290803590602001908201803590602001908080601f0160208091040260200160405190810160405280939291908181526020018383808284378201915050505050509192919290803590602001908201803590602001908080601f0160208091040260200160405190810160405280939291908181526020018383808284378201915050505050509192919290803590602001908201803590602001908080601f0160208091040260200160405190810160405280939291908181526020018383808284378201915050505050509192919290803590602001908201803590602001908080601f0160208091040260200160405190810160405280939291908181526020018383808284378201915050505050509192919290803590602001908201803590602001908080601f0160208091040260200160405190810160405280939291908181526020018383808284378201915050505050509192919290803573ffffffffffffffffffffffffffffffffffffffff169060200190929190505050611a6c565b005b6000610b7b61202b565b610b8361205b565b600080549050925060a0604051908101604052806040805190810160405280600a81526020017f636f6d6d697373696f6e0000000000000000000000000000000000000000000081525081526020018881526020018d81526020018781526020018c8152509150600182908060018154018082558091505090600182039060005260206000209060050201600090919290919091506000820151816000019080519060200190610c349291906120a1565b506020820151816001019080519060200190610c519291906120a1565b506040820151816002019080519060200190610c6e9291906120a1565b506060820151816003019080519060200190610c8b9291906120a1565b506080820151816004019080519060200190610ca89291906120a1565b505050508373ffffffffffffffffffffffffffffffffffffffff16837f5422023c4fe71f6e62bff6f2b82d9c7479c6125cbaa0d80fa89c14d3b99313178d8a8a8a6040518080602001806020018060200180602001858103855289818151815260200191508051906020019080838360005b83811015610d35578082015181840152602081019050610d1a565b50505050905090810190601f168015610d625780820380516001836020036101000a031916815260200191505b50858103845288818151815260200191508051906020019080838360005b83811015610d9b578082015181840152602081019050610d80565b50505050905090810190601f168015610dc85780820380516001836020036101000a031916815260200191505b50858103835287818151815260200191508051906020019080838360005b83811015610e01578082015181840152602081019050610de6565b50505050905090810190601f168015610e2e5780820380516001836020036101000a031916815260200191505b50858103825286818151815260200191508051906020019080838360005b83811015610e67578082015181840152602081019050610e4c565b50505050905090810190601f168015610e945780820380516001836020036101000a031916815260200191505b509850505050505050505060405180910390a360a0604051908101604052808c81526020018b81526020018a81526020018981526020018573ffffffffffffffffffffffffffffffffffffffff168152509050600081908060018154018082558091505090600182039060005260206000209060050201600090919290919091506000820151816000019080519060200190610f319291906120a1565b506020820151816001019080519060200190610f4e9291906120a1565b506040820151816002019080519060200190610f6b9291906120a1565b506060820151816003019080519060200190610f889291906120a1565b5060808201518160040160006101000a81548173ffffffffffffffffffffffffffffffffffffffff021916908373ffffffffffffffffffffffffffffffffffffffff160217905550505050505050505050505050505050565b60608060608060008086815481101515610ff757fe5b906000526020600020906005020160000160008781548110151561101757fe5b906000526020600020906005020160010160008881548110151561103757fe5b906000526020600020906005020160020160008981548110151561105757fe5b906000526020600020906005020160030160008a81548110151561107757fe5b906000526020600020906005020160040160009054906101000a900473ffffffffffffffffffffffffffffffffffffffff16848054600181600116156101000203166002900480601f01602080910402602001604051908101604052809291908181526020018280546001816001161561010002031660029004801561113e5780601f106111135761010080835404028352916020019161113e565b820191906000526020600020905b81548152906001019060200180831161112157829003601f168201915b50505050509450838054600181600116156101000203166002900480601f0160208091040260200160405190810160405280929190818152602001828054600181600116156101000203166002900480156111da5780601f106111af576101008083540402835291602001916111da565b820191906000526020600020905b8154815290600101906020018083116111bd57829003601f168201915b50505050509350828054600181600116156101000203166002900480601f0160208091040260200160405190810160405280929190818152602001828054600181600116156101000203166002900480156112765780601f1061124b57610100808354040283529160200191611276565b820191906000526020600020905b81548152906001019060200180831161125957829003601f168201915b50505050509250818054600181600116156101000203166002900480601f0160208091040260200160405190810160405280929190818152602001828054600181600116156101000203166002900480156113125780601f106112e757610100808354040283529160200191611312565b820191906000526020600020905b8154815290600101906020018083116112f557829003601f168201915b505050505091509450945094509450945091939590929450565b600061133661202b565b600180549050915060a0604051908101604052806040805190810160405280600b81526020017f6f62736572766174696f6e00000000000000000000000000000000000000000081525081526020018981526020018b81526020018881526020018a81525090506001819080600181540180825580915050906001820390600052602060002090600502016000909192909190915060008201518160000190805190602001906113e79291906120a1565b5060208201518160010190805190602001906114049291906120a1565b5060408201518160020190805190602001906114219291906120a1565b50606082015181600301908051906020019061143e9291906120a1565b50608082015181600401908051906020019061145b9291906120a1565b505050508273ffffffffffffffffffffffffffffffffffffffff167fe719bb5ff82573e2d68e17e5fabd214b8f4d729f879f7a90c3dd0aeaded2ec92838c8c8c8c8c8c8c604051808981526020018060200180602001806020018060200180602001806020018060200188810388528f818151815260200191508051906020019080838360005b838110156114fd5780820151818401526020810190506114e2565b50505050905090810190601f16801561152a5780820380516001836020036101000a031916815260200191505b5088810387528e818151815260200191508051906020019080838360005b83811015611563578082015181840152602081019050611548565b50505050905090810190601f1680156115905780820380516001836020036101000a031916815260200191505b5088810386528d818151815260200191508051906020019080838360005b838110156115c95780820151818401526020810190506115ae565b50505050905090810190601f1680156115f65780820380516001836020036101000a031916815260200191505b5088810385528c818151815260200191508051906020019080838360005b8381101561162f578082015181840152602081019050611614565b50505050905090810190601f16801561165c5780820380516001836020036101000a031916815260200191505b5088810384528b818151815260200191508051906020019080838360005b8381101561169557808201518184015260208101905061167a565b50505050905090810190601f1680156116c25780820380516001836020036101000a031916815260200191505b5088810383528a818151815260200191508051906020019080838360005b838110156116fb5780820151818401526020810190506116e0565b50505050905090810190601f1680156117285780820380516001836020036101000a031916815260200191505b50888103825289818151815260200191508051906020019080838360005b83811015611761578082015181840152602081019050611746565b50505050905090810190601f16801561178e5780820380516001836020036101000a031916815260200191505b509f5050505050505050505050505050505060405180910390a250505050505050505050565b60608060608060006002868154811015156117cb57fe5b90600052602060002090600902016001016002878154811015156117eb57fe5b906000526020600020906009020160020160028881548110151561180b57fe5b906000526020600020906009020160060160028981548110151561182b57fe5b906000526020600020906009020160070160028a81548110151561184b57fe5b906000526020600020906009020160080160009054906101000a900473ffffffffffffffffffffffffffffffffffffffff16848054806020026020016040519081016040528092919081815260200182805480156118c857602002820191906000526020600020905b8154815260200190600101908083116118b4575b505050505094508380548060200260200160405190810160405280929190818152602001828054801561191a57602002820191906000526020600020905b815481526020019060010190808311611906575b50505050509350828054600181600116156101000203166002900480601f0160208091040260200160405190810160405280929190818152602001828054600181600116156101000203166002900480156119b65780601f1061198b576101008083540402835291602001916119b6565b820191906000526020600020905b81548152906001019060200180831161199957829003601f168201915b50505050509250818054600181600116156101000203166002900480601f016020809104026020016040519081016040528092919081815260200182805460018160011615610100020316600290048015611a525780601f10611a2757610100808354040283529160200191611a52565b820191906000526020600020905b815481529060010190602001808311611a3557829003601f168201915b505050505091509450945094509450945091939590929450565b6000611a76612121565b6000806002805490509350610120604051908101604052808581526020018d81526020018c81526020018b81526020018a81526020018981526020018881526020018781526020018673ffffffffffffffffffffffffffffffffffffffff16815250925060028390806001815401808255809150509060018203906000526020600020906009020160009091929091909150600082015181600001556020820151816001019080519060200190611b2e929190612184565b506040820151816002019080519060200190611b4b929190612184565b506060820151816003019080519060200190611b689291906120a1565b506080820151816004019080519060200190611b859291906120a1565b5060a0820151816005019080519060200190611ba29291906120a1565b5060c0820151816006019080519060200190611bbf9291906120a1565b5060e0820151816007019080519060200190611bdc9291906120a1565b506101008201518160080160006101000a81548173ffffffffffffffffffffffffffffffffffffffff021916908373ffffffffffffffffffffffffffffffffffffffff160217905550505050600091505b8b51821015611e22578473ffffffffffffffffffffffffffffffffffffffff16848d84815181101515611c5c57fe5b906020019060200201517f687bc814378a76edb94c7ed6224536936a34c0004c0193a98ab255e8ad0e68c08d8d8d6040518080602001806020018060200180602001858103855260058152602001807f696e707574000000000000000000000000000000000000000000000000000000815250602001858103845288818151815260200191508051906020019080838360005b83811015611d0a578082015181840152602081019050611cef565b50505050905090810190601f168015611d375780820380516001836020036101000a031916815260200191505b50858103835287818151815260200191508051906020019080838360005b83811015611d70578082015181840152602081019050611d55565b50505050905090810190601f168015611d9d5780820380516001836020036101000a031916815260200191505b50858103825286818151815260200191508051906020019080838360005b83811015611dd6578082015181840152602081019050611dbb565b50505050905090810190601f168015611e035780820380516001836020036101000a031916815260200191505b5097505050505050505060405180910390a48180600101925050611c2d565b600090505b8a5181101561201c578473ffffffffffffffffffffffffffffffffffffffff16848c83815181101515611e5657fe5b906020019060200201517f687bc814378a76edb94c7ed6224536936a34c0004c0193a98ab255e8ad0e68c08d8d8d6040518080602001806020018060200180602001858103855260068152602001807f6f75747075740000000000000000000000000000000000000000000000000000815250602001858103845288818151815260200191508051906020019080838360005b83811015611f04578082015181840152602081019050611ee9565b50505050905090810190601f168015611f315780820380516001836020036101000a031916815260200191505b50858103835287818151815260200191508051906020019080838360005b83811015611f6a578082015181840152602081019050611f4f565b50505050905090810190601f168015611f975780820380516001836020036101000a031916815260200191505b50858103825286818151815260200191508051906020019080838360005b83811015611fd0578082015181840152602081019050611fb5565b50505050905090810190601f168015611ffd5780820380516001836020036101000a031916815260200191505b5097505050505050505060405180910390a48080600101915050611e27565b50505050505050505050505050565b60a06040519081016040528060608152602001606081526020016060815260200160608152602001606081525090565b60a06040519081016040528060608152602001606081526020016060815260200160608152602001600073ffffffffffffffffffffffffffffffffffffffff1681525090565b828054600181600116156101000203166002900490600052602060002090601f016020900481019282601f106120e257805160ff1916838001178555612110565b82800160010185558215612110579182015b8281111561210f5782518255916020019190600101906120f4565b5b50905061211d91906121d1565b5090565b610120604051908101604052806000815260200160608152602001606081526020016060815260200160608152602001606081526020016060815260200160608152602001600073ffffffffffffffffffffffffffffffffffffffff1681525090565b8280548282559060005260206000209081019282156121c0579160200282015b828111156121bf5782518255916020019190600101906121a4565b5b5090506121cd91906121d1565b5090565b6121f391905b808211156121ef5760008160009055506001016121d7565b5090565b905600a165627a7a723058205ac089faab35b517d5b31c9b4a944d8c7d0f332991866d22bd8c494a643380750029",
  "source": "pragma solidity >=0.4.22 <0.6.0;\n\ncontract Instance {\n  //address internal _owner;\n\n  struct Instance{\n    string instanceId;\n    string productId;\n    string metadataURI;\n    string hashMetadata;\n    address companyTrustyIdentifier;\n  }\n\n  struct Event {\n    string eventType;\n    string datetime;\n    string eventId;\n    string facilityId;\n    string instanceId;\n  }\n\n\n\n  struct Transformation{\n    uint transformationId;\n    uint[] input;\n    uint[] output;\n    string facilityId;\n    string datetime;\n    string business_event;\n    string metadataURI;\n    string hashMetadata;\n    address companyTrustyIdentifier;\n  }\n\n/*\n  struct TransformationSupport {\n    uint element;\n    uint transformationId;\n    address companyTrustyIdentifier;\n  }\n\n  struct Observation{\n    uint observationId;\n    string facilityId;\n    string toFacilityId;\n    string date_time;\n    string business_event;\n    string metadataURI;\n    string hashMetadata;\n    address companyTrustyIdentifier;\n  }*/\n\n  Instance[] instances;\n  Event[] events;\n  //TransformationSupport[] transformationSupport;\n  Transformation[] transformations;\n\n  //\n  //Observation[] observations;\n  //event ObservationEvents(uint indexed trustyInstanceId, uint observationId, address indexed _companyTrustyIdentifier);\n  event TransformationSupportEvents(string type_element, uint indexed element, uint indexed transformationId, string facilityId, string datetime, string business_event, address indexed companyTrustyIdentifier);\n  event CommissionEvents(string  instanceId, uint indexed trustyInstanceId, string datetime, string facilityId, string business_event, address indexed _companyTrustyIdentifier);  \n  event ObservationEvent(uint eventTrustyId, string eventId, string instanceId, string datetime, string facilityId, string business_event, string metadataURI, string metadataHash, address indexed _companyTrustyIdentifier);\n  \n  function createInstance(string memory eventId, string memory instanceId, string memory productId, string memory metadataURI, string memory hashMetadata, string memory datetime, string memory facilityId, string memory business_event, address  _companyTrustyIdentifier) public {\n    uint256 newInstanceId = instances.length;\n    \n    Event memory _event = Event({\n      eventType: \"commission\",\n      datetime: datetime,\n      eventId: eventId,\n      facilityId: facilityId,\n      instanceId: instanceId\n    });\n    events.push(_event);\n\n    emit CommissionEvents(instanceId, newInstanceId, datetime, facilityId, business_event, _companyTrustyIdentifier);\n    Instance memory _instance = Instance({\n      instanceId: instanceId,\n      productId: productId,\n      metadataURI: metadataURI,\n      hashMetadata: hashMetadata,\n      companyTrustyIdentifier: _companyTrustyIdentifier\n    });\n    instances.push(_instance);\n  }\n  \n  function getInstanceFromId(uint id)\n  public view returns (string memory,string memory,string memory, string memory,address){\n    return (\n      instances[id].instanceId,\n      instances[id].productId,\n      instances[id].metadataURI,\n      instances[id].hashMetadata,\n      instances[id].companyTrustyIdentifier\n    );\n  }\n  function createObservationEvent(string memory eventId, string memory instanceId, string memory datetime, string memory facilityId, string memory business_event, string memory metadataURI, string memory metadataHash, address _companyTrustyIdentifier) public {\n    uint256 newInstanceId = events.length;\n    Event memory _event = Event({\n      eventType: \"observation\",\n      datetime: datetime,\n      eventId: eventId,\n      facilityId: facilityId,\n      instanceId: instanceId\n    });\n    events.push(_event);\n    emit ObservationEvent(newInstanceId, eventId, instanceId, datetime, facilityId, business_event, metadataURI, metadataHash, _companyTrustyIdentifier);\n  }\n\n  \n  function TransformationMethod(string memory eventId, uint[] input, uint[] output, string memory facilityId, string memory datetime, string memory business_event, string memory metadataURI, string memory metadataHash, address companyTrustyIdentifier) public {\n    uint transformationId = transformations.length;\n    Transformation memory _transformation = Transformation({\n      transformationId : transformationId,\n      input: input,\n      output: output,\n      facilityId: facilityId,\n      datetime: datetime,\n      business_event: business_event,\n      metadataURI: metadataURI,\n      hashMetadata: metadataHash,\n      companyTrustyIdentifier: companyTrustyIdentifier\n    });\n    transformations.push(_transformation);\n    for(uint i = 0; i < input.length; i++){\n      emit TransformationSupportEvents(\"input\", input[i], transformationId, facilityId, datetime, business_event, companyTrustyIdentifier);\n    }\n    //Output Support Event\n    for(uint x = 0; x < output.length; x++){\n      emit TransformationSupportEvents(\"output\", output[x], transformationId, facilityId, datetime, business_event, companyTrustyIdentifier);\n    }\n  }\n\n  function getTransformationFromId(uint id)\n  public view returns ( uint[], uint[], string, string, address){\n    return (\n      transformations[id].input,\n      transformations[id].output,\n      transformations[id].metadataURI,\n      transformations[id].hashMetadata,\n      transformations[id].companyTrustyIdentifier\n    );\n  }\n\n  /*function ObservationMethod(uint trustyInstanceId, string facilityId, string toFacilityId, string date_time, uint16 business_event, address _companyTrustyIdentifier) public {\n    uint observationId = observations.length;\n    Observation memory _observation = Observation({\n      observationId: observationId,\n      trustyInstanceId: trustyInstanceId,\n      facilityId: facilityId,\n      toFacilityId: toFacilityId,\n      date_time: date_time,\n      business_event: business_event,\n      metadataURI: metadataURI,\n      hashMetadata: hashMetadata,\n      companyTrustyIdentifier: _companyTrustyIdentifier\n    });\n    observations.push(_observation);\n    emit ObservationEvents(trustyInstanceId, observationId, _companyTrustyIdentifier);\n  }\n\n  function getObservationFromId(uint id)\n  public view returns (uint,string,string,string,string,string,uint16,address){\n    return (\n      observations[id].observationId,\n      observations[id].trustyInstanceId,\n      observations[id].facilityId,\n      observations[id].toFacilityId,\n      observations[id].date_time,\n      observations[id].business_event,\n      observations[id].metadataURI,\n      observations[id].hashMetadata,\n      observations[id].companyTrustyIdentifier\n    );\n  }*/\n}",
  "sourcePath": "/Users/alessandrochelli/softwareProjects/Trusty/trusty-web3-contracts/instance_contract/contracts/Instance.sol",
  "compiler": {
    "name": "solc",
    "version": "0.4.24+commit.e67f0147.Emscripten.clang"
  },
  "schemaVersion": "2.0.1",
  "updatedAt": "2019-09-10T13:11:17.901Z"
}